:020000040000FA
:0400000007EF00F016
:0A00080076829EED1BF012EF1FF050
:1006000000494E46494E49545900696E66696E6903
:100610007479005570646174656421004E414E0028
:0B062000696E66006E616E002C000029
:10062C0029502A10D8B41DEF03F01FEF03F02BEF65
:10063C0003F029C0D9FF2AC0DAFF27C0DEFF28C08B
:10064C00DDFF2BEF03F0274A282A010E416E27C04D
:10065C00D9FF28C0DAFF200EDE18D8B438EF03F02B
:10066C003BEF03F0010E3CEF03F0000E466E476AC1
:10067C0046504710D8A445EF03F047EF03F069EF5D
:10068C0003F0F70E2B6EFF0E2C6E27C0D9FF28C07F
:10069C00DAFFDF502D6E2D50466E476A46C02EF0A5
:1006AC0047C02FF02B502E262C502F222F5009E113
:1006BC00050E2E5CD8A065EF03F067EF03F069EF31
:1006CC0003F0000E416E41C031F0326A31503210ED
:1006DC00D8A473EF03F075EF03F029EF03F0000ECD
:1006EC00436E2D0E46184710D8A47FEF03F081EF10
:1006FC0003F087EF03F0010E436E274A282A93EF8D
:10070C0003F02B0E46184710D8A48FEF03F091EF8F
:10071C0003F093EF03F083EF03F0000E4C6E98EFB1
:10072C0003F04C2A4C502724D96E000E2820DA6E88
:10073C00DF50D8B4A4EF03F0A6EF03F0D6EF03F02C
:10074C004C502724D96E000E2820DA6EDF502B6E09
:10075C000A0E4C24F66EF76A060EF7220800F550C6
:10076C002B18D8B4BCEF03F0BEEF03F097EF03F0F7
:10077C004C502724D96E000E2820DA6EDF502B6ED9
:10078C00010E4C24F66EF76A060EF7220800F5509F
:10079C002B18D8B4D4EF03F0D6EF03F097EF03F097
:1007AC00020E4C64DCEF03F0DEEF03F00AEF04F012
:1007BC00000E486E000E496E800E4A6E7F0E4B6E18
:1007CC0029502A10D8B4EDEF03F0EFEF03F09FEFB0
:1007DC000BF0080E4C18D8B4F6EF03F0F8EF03F05A
:1007EC00FAEF03F0030E4C6E4C5027242B6E000EC8
:1007FC0028202C6E29C0D9FF2AC0DAFF2BC0DEFFBF
:10080C002CC0DDFF9FEF0BF0000E4C6E0FEF04F0D1
:10081C004C2A4C502724D96E000E2820DA6EDF505B
:10082C00D8B41BEF04F01DEF04F04DEF04F04C5066
:10083C002724D96E000E2820DA6EDF502B6E240E82
:10084C004C24F66EF76A060EF7220800F5502B18AA
:10085C00D8B433EF04F035EF04F00EEF04F04C5045
:10086C002724D96E000E2820DA6EDF502B6E1C0E5A
:10087C004C24F66EF76A060EF7220800F5502B187A
:10088C00D8B44BEF04F04DEF04F00EEF04F0030E70
:10089C004C18D8A454EF04F056EF04F0C4EF04F055
:1008AC001B0E036E060E046E60EC1FF003C048F0C6
:1008BC0004C049F005C04AF006C04BF029502A107C
:1008CC00D8B46BEF04F06DEF04F09FEF0BF04C50CD
:1008DC002726000E282227C0D9FF28C0DAFF280EB1
:1008EC00DE18D8A47CEF04F07EEF04F0BAEF04F02D
:1008FC00000E4C6E83EF04F04C2A4C502724D96E1A
:10090C00000E2820DA6EDF50D8B48FEF04F091EF90
:10091C0004F0A0EF04F04C502724D96E000E2820D0
:10092C00DA6E290EDE18D8A49EEF04F0A0EF04F0C6
:10093C0082EF04F04C502724D96E000E2820DA6E7A
:10094C00290EDE18D8A4ADEF04F0AFEF04F0BAEF27
:10095C0004F04C502B6E2C6A010E2B26000E2C2210
:10096C002B5027262C50282229C0D9FF2AC0DAFF69
:10097C0027C0DEFF28C0DDFF9FEF0BF0000E476E97
:10098C00000E466E000E486E000E496E000E4A6E4A
:10099C00000E4B6E000E456E000E446E000E4C6E3B
:1009AC00D9EF04F04C2A4C502724D96E000E282085
:1009BC00DA6E300EDE18D8B4E6EF04F0E8EF04F08F
:1009CC00D8EF04F04C50D8B4EEEF04F0F0EF04F094
:1009DC0087EF08F04C502724D96E000E2820DA6ED1
:1009EC00780EDE18D8B4FDEF04F0FFEF04F00EEF34
:1009FC0005F04C502724D96E000E2820DA6E580EC4
:100A0C00DE18D8A40CEF05F00EEF05F087EF08F018
:100A1C004C502B6E2C6A010E2B26000E2C222B50C8
:100A2C0027262C502822000E4C6E1EEF05F04C2A67
:100A3C004C502724D96E000E2820DA6E300EDE18AA
:100A4C00D8B42BEF05F02DEF05F01DEF05F0000EDF
:100A5C004C6E4C502724D96E000E2820DA6E700E86
:100A6C00DE18D8B43CEF05F03EEF05F0CAEF06F007
:100A7C004C502724D96E000E2820DA6E500EDE184A
:100A8C00D8A44BEF05F04DEF05F04FEF05F0CAEF92
:100A9C0006F04C502724D96E000E2820DA6E2E0E4C
:100AAC00DE18D8A45CEF05F05EEF05F062EF05F000
:100ABC0043884C2ACAEF06F04C502724D96E000EFE
:100ACC002820DA6EDF502B6E2B50036E046AE6EC96
:100ADC001CF003500410D8B476EF05F078EF05F055
:100AEC00F3EF05F0000E426ED00E2B6EFF0E2C6E47
:100AFC004C502724D96E000E2820DA6EDF502D6E54
:100B0C002E6A2B502D262C502E222E500AE10A0E26
:100B1C002D5CD8A094EF05F097EF05F0010E98EF3F
:100B2C0005F0000E336E346A33503410D8B4A1EF94
:100B3C0005F0A3EF05F0AEEF05F04C502724D96E6D
:100B4C00000E2820DA6EDF50D00F426EBEEF05F09B
:100B5C004C502724D96E000E2820DA6EDF502B6EF5
:100B6C002B50096E0A6AB9EC1DF00950C90F426E80
:100B7C0047BECCEF05F0475007E1080E465CD8B0F5
:100B8C00CAEF05F0CCEF05F0EBEF05F04650070887
:100B9C002B6ED8902B36D8902B3642C02CF02D6A69
:100BAC002E6A2F6A2B2AE0EF05F0D8902C362D36C2
:100BBC002E362F362B2EDBEF05F02C5048122D50F5
:100BCC0049122E504A122F504B12464A472A040EF5
:100BDC004426000E4522FDEF05F0000E276E000E98
:100BEC00286E000E296E000E2A6EC0EF0BF04C2AF8
:100BFC002FEF05F04C502724D96E000E2820DA6E0A
:100C0C00700EDE18D8B40DEF06F00FEF06F0D1EF32
:100C1C0006F04C502724D96E000E2820DA6E500EA8
:100C2C00DE18D8A41CEF06F01EEF06F020EF06F03D
:100C3C00D1EF06F04C502724D96E000E2820DA6E26
:100C4C00300EDE18D8A42DEF06F02FEF06F03EEF95
:100C5C0006F046504710D8A436EF06F038EF06F0F1
:100C6C003EEF06F0FC0E4426FF0E4522C9EF06F0BF
:100C7C004C502724D96E000E2820DA6EDF502B6ED4
:100C8C002B50036E046AE6EC1CF003500410D8B42D
:100C9C0052EF06F054EF06F0C9EF06F0000E426E6C
:100CAC00D00E2B6EFF0E2C6E4C502724D96E000EDE
:100CBC002820DA6EDF502D6E2E6A2B502D262C50EC
:100CCC002E222E500AE10A0E2D5CD8A070EF06F0F1
:100CDC0073EF06F0010E74EF06F0000E356E366AF7
:100CEC0035503610D8B47DEF06F07FEF06F08AEF62
:100CFC0006F04C502724D96E000E2820DA6EDF50F7
:100D0C00D00F426E9AEF06F04C502724D96E000E8D
:100D1C002820DA6EDF502B6E2B50096E0A6AB9EC64
:100D2C001DF00950C90F426E47BEA8EF06F04750A0
:100D3C0007E1080E465CD8B0A6EF06F0A8EF06F067
:100D4C00C7EF06F0465007082B6ED8902B36D8907C
:100D5C002B3642C02CF02D6A2E6A2F6A2B2ABCEF40
:100D6C0006F0D8902C362D362E362F362B2EB7EF8C
:100D7C0006F02C5048122D5049122E504A122F506A
:100D8C004B12464A472A4C2A43B8CFEF06F0D1EF14
:100D9C0006F000EF06F04C502724D96E000E2820E8
:100DAC00DA6E700EDE18D8B4DEEF06F0E0EF06F067
:100DBC00F9EF06F04C502724D96E000E2820DA6E7D
:100DCC00500EDE18D8B4EDEF06F0EFEF06F0F9EFA9
:100DDC0006F0000E276E000E286E000E296E000E17
:100DEC002A6EC0EF0BF04C2A4C502724D96E000E03
:100DFC002820DA6E2B0EDE18D8A407EF07F009EFC7
:100E0C0007F00CEF07F04C2A1DEF07F04C5027248D
:100E1C00D96E000E2820DA6E2D0EDE18D8A419EF2C
:100E2C0007F01BEF07F01DEF07F043864C2A4C50E0
:100E3C002726000E2822000E4C6E26EF07F04C2AB7
:100E4C004C502724D96E000E2820DA6E300EDE1896
:100E5C00D8B433EF07F035EF07F025EF07F0000EAD
:100E6C00476E000E466E67EF07F04C50D8B441EF5A
:100E7C0007F043EF07F051EF07F046C00DF047C005
:100E8C000EF0000E106E0A0E0F6E3AEC1FF00DC035
:100E9C0046F00EC047F0D00E2B6EFF0E2C6E4C5051
:100EAC002724D96E000E2820DA6EDF502D6E2E6AA4
:100EBC002B502D262C502E222D5046262E504722BC
:100ECC004C2AD00E2B6EFF0E2C6E4C502724D96E54
:100EDC00000E2820DA6EDF502D6E2E6A2B502D2638
:100EEC002C502E222E500AE10A0E2D5CD8A081EF38
:100EFC0007F084EF07F0010E85EF07F0000E376E58
:100F0C00386A37503810D8A48EEF07F090EF07F0FE
:100F1C003BEF07F04C50D8A496EF07F098EF07F092
:100F2C00A2EF07F0000E276E000E286E000E296E41
:100F3C00000E2A6EC0EF0BF043A6A7EF07F0A9EF47
:100F4C0007F0ADEF07F0466C471ED8B0472A465065
:100F5C0044264750452229502A10D8B4B8EF07F040
:100F6C00BAEF07F0C8EF07F04C5027242B6E000E99
:100F7C0028202C6E29C0D9FF2AC0DAFF2BC0DEFF37
:100F8C002CC0DDFF485049104A104B10D8A4D1EFAB
:100F9C0007F0D3EF07F0DDEF07F0000E276E000E21
:100FAC00286E000E296E000E2A6EC0EF0BF0FF0E9D
:100FBC0048142B6E000E49142C6E000E4A142D6E24
:100FCC00000E4B142E6E2E502D102C1009E1810E9C
:100FDC002B5CD8A0F4EF07F0F6EF07F008EF08F061
:100FEC00000E4826010E4922000E4A22000E4B220A
:100FFC0008EF08F0D890483649364A364B36440646
:10100C00D8A045064BAE0DEF08F00FEF08F000EF3F
:10101C0008F045AE1BEF08F0830E445CFF0E4558FC
:10102C00D8B01BEF08F01DEF08F029EF08F0FF0E09
:10103C00456E810E446E000E486E000E496E000E19
:10104C004A6E000E4B6E810E441808E14528D8B448
:10105C0032EF08F034EF08F03CEF08F0D890483647
:10106C0049364A364B364406D8A0450645BE48EFAD
:10107C0008F0455009E1800E445CD8A048EF08F018
:10108C004AEF08F056EF08F0000E486E000E496E5D
:10109C00000E4A6E000E4B6E000E456E800E446EB6
:1010AC00090E2B6ED8904B324A32493248322B2ED5
:1010BC0058EF08F0FF0E4816FF0E49167F0E4A1621
:1010CC00000E4B167F0E44242B6E000E45202C6E0A
:1010DC00FF0E2B142D6E2E6A2F6A306A170ED890C5
:1010EC002D362E362F363036E82E75EF08F02D5073
:1010FC0048122E5049122F504A1230504B129FEF6B
:10110C000BF043B88CEF08F08EEF08F0A0EF08F06E
:10111C0027C0D9FF28C0DAFF2E0EDE18D8A499EF0D
:10112C0008F09BEF08F0A0EF08F04388274A282A24
:10113C0087EF08F0D00E2B6EFF0E2C6E27C0D9FF58
:10114C0028C0DAFFDF502D6E2E6A2B502D262C5026
:10115C002E222E500AE10A0E2D5CD8A0B8EF08F012
:10116C00BBEF08F0010EBCEF08F0000E396E3A6AC6
:10117C0039503A10D8A4C5EF08F0C7EF08F0C9EF02
:10118C0008F017EF09F04382090E46184710D8B43F
:10119C00D2EF08F0D4EF08F00AEF09F043A8D9EF2A
:1011AC0008F0DBEF08F0DEEF08F04406D8A04506A7
:1011BC00464A472A48C003F049C004F04AC005F02B
:1011CC004BC006F00A0E076E000E086E000E096E7C
:1011DC00000E0A6E1EEC1DF003C048F004C049F06E
:1011EC0005C04AF006C04BF027C0D9FF28C0DAFF73
:1011FC00DF502B6ED00E2B262B504826000E49228A
:10120C004A224B2213EF09F043B80FEF09F011EF0C
:10121C0009F013EF09F0444A452A274A282A87EF98
:10122C0008F0000E476E000E466E27C0D9FF28C08E
:10123C00DAFF650EDE18D8B426EF09F028EF09F0B6
:10124C0035EF09F027C0D9FF28C0DAFF450EDE18AC
:10125C00D8A433EF09F035EF09F024EF0AF0274A50
:10126C00282A27C0D9FF28C0DAFF2D0EDE18D8A4F3
:10127C0042EF09F044EF09F049EF09F04386274AA1
:10128C00282A58EF09F027C0D9FF28C0DAFF2B0E07
:10129C00DE18D8A454EF09F056EF09F058EF09F016
:1012AC00274A282A27C0D9FF28C0DAFF300EDE18BB
:1012BC00D8B463EF09F065EF09F056EF09F0D00EE2
:1012CC002B6EFF0E2C6E27C0D9FF28C0DAFFDF5023
:1012DC002D6E2E6A2B502D262C502E222E500AE1CC
:1012EC000A0E2D5CD8A07DEF09F080EF09F0010EFD
:1012FC0081EF09F0000E3B6E3C6A3B503C10D8B4B9
:10130C008AEF09F08CEF09F019EF0AF027C0D9FF2A
:10131C0028C0DAFFDF502B6ED00E2B262B50466EDA
:10132C00476A274A282AD00E2B6EFF0E2C6E27C038
:10133C00D9FF28C0DAFFDF502D6E2E6A2B502D26D8
:10134C002C502E222E500AE10A0E2D5CD8A0B1EFA3
:10135C0009F0B4EF09F0010EB5EF09F0000E3D6E87
:10136C003E6A3D503E10D8B4BEEF09F0C0EF09F014
:10137C0019EF0AF027C0D9FF28C0DAFFDF502B6E17
:10138C00D00E2B2646C00DF047C00EF0000E106E8E
:10139C000A0E0F6E3AEC1FF02B500D24466E000E09
:1013AC000E20476E274A282AD00E2B6EFF0E2C6E6D
:1013BC0027C0D9FF28C0DAFFDF502D6E2E6A2B50C4
:1013CC002D262C502E222E500AE10A0E2D5CD8A070
:1013DC00F2EF09F0F5EF09F0010EF6EF09F0000E4F
:1013EC003F6E406A3F504010D8B4FFEF09F001EF58
:1013FC000AF019EF0AF027C0D9FF28C0DAFFDF5036
:10140C002B6ED00E2B2646C00DF047C00EF0000EF2
:10141C00106E0A0E0F6E3AEC1FF02B500D24466E18
:10142C00000E0E20476E43A61EEF0AF020EF0AF0C6
:10143C0024EF0AF0466C471ED8B0472A4650442683
:10144C004750452229502A10D8B42FEF0AF031EF1B
:10145C000AF040EF0AF043A236EF0AF038EF0AF038
:10146C0040EF0AF029C0D9FF2AC0DAFF27C0DEFFFF
:10147C0028C0DDFF48C004F049C005F04AC006F0A2
:10148C004BC007F0000E50EC19F004C048F005C03A
:10149C0049F006C04AF007C04BF048C01BF049C0E9
:1014AC001CF04AC01DF04BC01EF0000E1F6E000E4B
:1014BC00206E000E216E000E226EFDEC1BF0D8A0EB
:1014CC006AEF0AF06CEF0AF076EF0AF0000E276E66
:1014DC00000E286E000E296E000E2A6EC0EF0BF067
:1014EC0045BE7DEF0AF07BEF0AF00BEF0BF0446C7E
:1014FC00451ED8B0452AA1EF0AF048C003F049C0F8
:10150C0004F04AC005F04BC006F0F90E076E020E4F
:10151C00086E150E096E500E0A6E83EC17F003C0A0
:10152C0048F004C049F005C04AF006C04BF0F60E76
:10153C004426FF0E452245BEAFEF0AF0455007E1A9
:10154C000A0E445CD8B0ADEF0AF0AFEF0AF083EFAF
:10155C000AF0CEEF0AF048C003F049C004F04AC0CC
:10156C0005F04BC006F0000E076E000E086E200E44
:10157C00096E410E0A6E83EC17F003C048F004C0EC
:10158C0049F005C04AF006C04BF04406D8A0450609
:10159C0044504510D8A4D5EF0AF0D7EF0AF0B1EFBC
:1015AC000AF048C003F049C004F04AC005F04BC033
:1015BC0006F0000E076E000E086E800E096E000E0F
:1015CC000A6EADEC1AF0D8B0EEEF0AF0F0EF0AF0BC
:1015DC009FEF0BF043A0F5EF0AF0F7EF0AF001EFE5
:1015EC000BF0000E276E000E286E800E296E800EFA
:1015FC002A6EC0EF0BF0000E276E000E286E800EC8
:10160C00296E000E2A6EC0EF0BF045BE16EF0BF0E4
:10161C00455008E14404D8A016EF0BF018EF0BF07E
:10162C009FEF0BF038EF0BF048C003F049C004F00B
:10163C004AC005F04BC006F0F90E076E020E086E9C
:10164C00150E096E500E0A6E6EEC15F003C048F0C4
:10165C0004C049F005C04AF006C04BF0F60E442613
:10166C00FF0E4522455007E10A0E445CD8B041EF0D
:10167C000BF043EF0BF01AEF0BF062EF0BF048C0DE
:10168C0003F049C004F04AC005F04BC006F0000E50
:10169C00076E000E086E200E096E410E0A6E6EEC7F
:1016AC0015F003C048F004C049F005C04AF006C06C
:1016BC004BF04406D8A0450644504510D8A469EF19
:1016CC000BF06BEF0BF045EF0BF0FF0E036EFF0E04
:1016DC00046E7F0E056E7F0E066E48C007F049C083
:1016EC0008F04AC009F04BC00AF0ADEC1AF0D8B0C3
:1016FC0082EF0BF084EF0BF09FEF0BF043A089EF20
:10170C000BF08BEF0BF095EF0BF0000E276E000E2D
:10171C00286E800E296E800E2A6EC0EF0BF0000E24
:10172C00276E000E286E800E296E000E2A6EC0EFFA
:10173C000BF043A0A4EF0BF0A6EF0BF0B8EF0BF0FF
:10174C0048C003F049C004F04AC005F04BC006F095
:10175C00C3EC1EF003C048F004C049F005C04AF0C9
:10176C0006C04BF048C027F049C028F04AC029F009
:10177C004BC02AF01200C290D08EF28E0F0EC16EAA
:10178C00B468000E956E95CF93FF93CF92FF640EC5
:10179C001C6E000E1D6E000E1E6E000E1F6EA4EC55
:1017AC001CF080EC1FF0000E71EC1FF0516E5150CC
:1017BC00046E056A066A076A000E50EC19F004C044
:1017CC0071F005C072F006C073F007C074F0020E21
:1017DC0071EC1FF0516E5150046E056A066A076A6F
:1017EC00000E50EC19F004C06DF005C06EF006C090
:1017FC006FF007C070F0040E71EC1FF0516E515079
:10180C00046E056A066A076A000E50EC19F004C0F3
:10181C0069F005C06AF006C06BF007C06CF071C0CF
:10182C0003F072C004F073C005F074C006F02AEC2B
:10183C001AF00350756E010E71EC1FF0E806D8A477
:10184C002AEF0CF02CEF0CF02FEF0CF0839E30EF06
:10185C000CF0838E75B035EF0CF038EF0CF0010EF8
:10186C0039EF0CF0000E676E6750D8B440EF0CF0F7
:10187C0044EF0CF0516A512A45EF0CF0516A513A81
:10188C005146514683505118BF0B5118836E75C089
:10189C0051F0D890513251B056EF0CF059EF0CF08A
:1018AC00010E5AEF0CF0000E676E6750D8B461EF62
:1018BC000CF065EF0CF0516A512A66EF0CF0516A8E
:1018CC00513A514683505118DF0B5118836E75C035
:1018DC0051F0D8905132D890513251B078EF0CF081
:1018EC007BEF0CF0010E7CEF0CF0000E676E675076
:1018FC00D8B483EF0CF087EF0CF0516A512A88EFC3
:10190C000CF0516A513A83505118EF0B5118836EF9
:10191C0075C051F0D8905132D8905132D890513284
:10192C0051B09BEF0CF09EEF0CF0010E9FEF0CF002
:10193C00000E676E6750D8B4A6EF0CF0AAEF0CF04F
:10194C00516A512AABEF0CF0516A5146514651463F
:10195C0083505118F70B5118836E75C051F0513AE2
:10196C000F0E511651B0BDEF0CF0C0EF0CF0010E84
:10197C00C1EF0CF0000E676E6750D8B4C8EF0CF0D6
:10198C00CCEF0CF0516A512ACDEF0CF0516A514654
:10199C00514683505118FB0B5118836E6DC003F0E8
:1019AC006EC004F06FC005F070C006F02AEC1AF09F
:1019BC000350756E030E71EC1FF0E806D8A4E9EF26
:1019CC000CF0EBEF0CF0EEEF0CF08392EFEF0CF071
:1019DC00838275B0F4EF0CF0F7EF0CF0010EF8EF1A
:1019EC000CF0000E676E6750D8B4FFEF0CF003EFED
:1019FC000DF0516A512A04EF0DF0516A83505118C1
:101A0C00FE0B5118836E75C051F0D890513251B005
:101A1C0012EF0DF015EF0DF0010E16EF0DF0000E9C
:101A2C00676E6750D8B41DEF0DF021EF0DF0516AC1
:101A3C00512A22EF0DF0516A513A81505118EF0B97
:101A4C005118816E75C051F0D8905132D8905132E6
:101A5C0051B033EF0DF036EF0DF0010E37EF0DF006
:101A6C00000E676E6750D8B43EEF0DF042EF0DF0EC
:101A7C00516A512A43EF0DF0516A51465146514675
:101A8C0081505118F70B5118816E75C051F0D890D8
:101A9C005132D8905132D890513251B058EF0DF09C
:101AAC005BEF0DF0010E5CEF0DF0000E676E6750F2
:101ABC00D8B463EF0DF067EF0DF0516A512A68EF5F
:101ACC000DF0516A5146514681505118FB0B51187B
:101ADC00816E75C051F0513A0F0E511651B079EF1D
:101AEC000DF07CEF0DF0010E7DEF0DF0000E676E2A
:101AFC006750D8B484EF0DF088EF0DF0516A512A7D
:101B0C0089EF0DF0516A514681505118FD0B511857
:101B1C00816E69C003F06AC004F06BC005F06CC044
:101B2C0006F02AEC1AF00350756E050E71EC1FF0DE
:101B3C00E806D8A4A4EF0DF0A6EF0DF0A9EF0DF078
:101B4C008190AAEF0DF0818075B0AFEF0DF0B2EF80
:101B5C000DF0010EB3EF0DF0000E676E6750D8B4A8
:101B6C00BAEF0DF0BEEF0DF0516A512ABFEF0DF038
:101B7C00516A513A514680505118DF0B5118806E02
:101B8C0075C051F0D890513251B0CFEF0DF0D2EF6B
:101B9C000DF0010ED3EF0DF0000E676E6750D8B448
:101BAC00DAEF0DF0DEEF0DF0516A512ADFEF0DF098
:101BBC00516A513A80505118EF0B5118806E75C014
:101BCC0051F0D8905132D890513251B0F0EF0DF015
:101BDC00F3EF0DF0010EF4EF0DF0000E676E675091
:101BEC00D8B4FBEF0DF0FFEF0DF0516A512A00EF66
:101BFC000EF0516A51465146514680505118F70B20
:101C0C005118806E75C051F0D8905132D890513225
:101C1C00D890513251B015EF0EF018EF0EF0010EB6
:101C2C0019EF0EF0000E676E6750D8B420EF0EF06F
:101C3C0024EF0EF0516A512A25EF0EF0516A5146ED
:101C4C00514680505118FB0B5118806E75C051F0E5
:101C5C00513A0F0E511651B036EF0EF039EF0EF01F
:101C6C00010E3AEF0EF0000E676E6750D8B441EFDC
:101C7C000EF045EF0EF0516A512A46EF0EF0516A04
:101C8C00514680505118FD0B5118806E6850D8B4D5
:101C9C0052EF0EF054EF0EF04CEF0EF0980E0E6E5D
:101CAC00000E0F6E280E106E060E116E2FEC1BF030
:101CBC000EC055F00FC056F055C0D9FF56C0DAFF14
:101CCC00240EDE18D8A46DEF0EF06FEF0EF0DDEFE2
:101CDC000FF0000E546E000E536EA3EF0EF0000EBC
:101CEC000E6E000E0F6E280E106E060E116E2FEC7F
:101CFC001BF00EC055F00FC056F055C04DF056C03D
:101D0C004EF027EC1FF0800E516E000E526ED890E4
:101D1C005334D96E5434DA6ED890D936DA365150F1
:101D2C00D9265250DA224DC0DEFF4EC0DEFF4FC026
:101D3C00DEFF50C0DEFF534A542A55505610D8A42B
:101D4C00AAEF0EF0ACEF0EF075EF0EF080C071F054
:101D5C0081C072F082C073F083C074F071C003F064
:101D6C0072C004F073C005F074C006F02AEC1AF0CF
:101D7C0003500D6E000EFAEC1EF0000E71EC1FF00D
:101D8C00516E5150046E056A066A076A010E50ECDA
:101D9C0019F004C017F005C018F006C019F007C000
:101DAC001AF071C013F072C014F073C015F074C047
:101DBC0016F068EC1EF013C01BF014C01CF015C01C
:101DCC001DF016C01EF0000E1F6E000E206E000ED1
:101DDC00216E3F0E226EFDEC1BF0D8A0F8EF0EF03A
:101DEC00FAEF0EF001EF0FF0010E0D6E010EFAEC92
:101DFC001EF006EF0FF0000E0D6E010EFAEC1EF049
:101E0C0084C06DF085C06EF086C06FF087C070F036
:101E1C006DC003F06EC004F06FC005F070C006F02A
:101E2C002AEC1AF003500D6E020EFAEC1EF0020EA4
:101E3C0071EC1FF0516E5150046E056A066A076A08
:101E4C00010E50EC19F004C017F005C018F006C0D4
:101E5C0019F007C01AF06DC013F06EC014F06FC00B
:101E6C0015F070C016F068EC1EF013C01BF014C017
:101E7C001CF015C01DF016C01EF0000E1F6E000EDB
:101E8C00206E000E216E3F0E226EFDEC1BF0D8A0D2
:101E9C0052EF0FF054EF0FF05BEF0FF0010E0D6EE1
:101EAC00030EFAEC1EF060EF0FF0000E0D6E030E39
:101EBC00FAEC1EF088C069F089C06AF08AC06BF039
:101ECC008BC06CF069C003F06AC004F06BC005F005
:101EDC006CC006F02AEC1AF003500D6E040EFAECEE
:101EEC001EF0040E71EC1FF0516E5150046E056A19
:101EFC00066A076A010E50EC19F004C017F005C011
:101F0C0018F006C019F007C01AF069C013F06AC0C7
:101F1C0014F06BC015F06CC016F068EC1EF013C01A
:101F2C001BF014C01CF015C01DF016C01EF0000EE6
:101F3C001F6E000E206E000E216E3F0E226EFDEC09
:101F4C001BF0D8A0ACEF0FF0AEEF0FF0B5EF0FF029
:101F5C00010E0D6E050EFAEC1EF0BAEF0FF0000E2E
:101F6C000D6E050EFAEC1EF08CC05FF08DC060F0AB
:101F7C008EC061F08FC062F090C05BF091C05CF0DD
:101F8C0092C05DF093C05EF094C057F095C058F0CD
:101F9C0096C059F097C05AF0E3EC0FF0130E046E94
:101FAC00060E056EDFEC1EF00A0E8EEC1FF0000E16
:101FBC00686E4CEF0EF007EF00F071C003F072C0CA
:101FCC0004F073C005F074C006F02AEC1AF003504C
:101FDC00756E7550046E056A066A076A010E50EC40
:101FEC0019F004C017F005C018F006C019F007C0AE
:101FFC001AF071C013F072C014F073C015F074C0F5
:10200C0016F068EC1EF013C01BF014C01CF015C0C9
:10201C001DF016C01EF0000E1F6E000E206E000E7E
:10202C00216E3F0E226EFDEC1BF0D8A020EF10F0BD
:10203C0022EF10F025EF10F0839E26EF10F0838E28
:10204C0075B02BEF10F02EEF10F0010E2FEF10F0FB
:10205C00000E676E6750D8B436EF10F03AEF10F000
:10206C00276A272A3BEF10F0276A273A274627468C
:10207C0083502718BF0B2718836E75C027F0D89094
:10208C00273227B04CEF10F04FEF10F0010E50EF4D
:10209C0010F0000E676E6750D8B457EF10F05BEF7E
:1020AC0010F0276A272A5CEF10F0276A273A274698
:1020BC0083502718DF0B2718836E75C027F0D89034
:1020CC002732D890273227B06EEF10F071EF10F056
:1020DC00010E72EF10F0000E676E6750D8B479EFF6
:1020EC0010F07DEF10F0276A272A7EEF10F0276A98
:1020FC00273A83502718EF0B2718836E75C027F0EB
:10210C00D8902732D8902732D890273227B091EF29
:10211C0010F094EF10F0010E95EF10F0000E676EBA
:10212C006750D8B49CEF10F0A0EF10F0276A272A64
:10213C00A1EF10F0276A2746274627468350271819
:10214C00F70B2718836E75C027F0273A0F0E27164A
:10215C0027B0B3EF10F0B6EF10F0010EB7EF10F0A0
:10216C00000E676E6750D8B4BEEF10F0C2EF10F0DF
:10217C00276A272AC3EF10F0276A27462746835081
:10218C002718FB0B2718836E6DC003F06EC004F08C
:10219C006FC005F070C006F02AEC1AF00350756E93
:1021AC007550046E056A066A076A010E50EC19F048
:1021BC0004C017F005C018F006C019F007C01AF0DB
:1021CC006DC013F06EC014F06FC015F070C016F037
:1021DC0068EC1EF013C01BF014C01CF015C01DF0F1
:1021EC0016C01EF0000E1F6E000E206E000E216E2B
:1021FC003F0E226EFDEC1BF0D8A007EF11F009EF9B
:10220C0011F00CEF11F083920DEF11F0838275B089
:10221C0012EF11F015EF11F0010E16EF11F0000E88
:10222C00676E6750D8B41DEF11F021EF11F0276ADB
:10223C00272A22EF11F0276A83502718FE0B271844
:10224C00836E75C027F0D890273227B030EF11F08D
:10225C0033EF11F0010E34EF11F0000E676E675082
:10226C00D8B43BEF11F03FEF11F0276A272A40EF6B
:10227C0011F0276A273A81502718EF0B2718816E27
:10228C0075C027F0D8902732D890273227B051EF5D
:10229C0011F054EF11F0010E55EF11F0000E676EB6
:1022AC006750D8B45CEF11F060EF11F0276A272A61
:1022BC0061EF11F0276A27462746274681502718D9
:1022CC00F70B2718816E75C027F0D8902732D8905D
:1022DC002732D890273227B076EF11F079EF11F032
:1022EC00010E7AEF11F0000E676E6750D8B481EFD3
:1022FC0011F085EF11F0276A272A86EF11F0276A73
:10230C002746274681502718FB0B2718816E75C06E
:10231C0027F0273A0F0E271627B097EF11F09AEFF8
:10232C0011F0010E9BEF11F0000E676E6750D8B4E0
:10233C00A2EF11F0A6EF11F0276A272AA7EF11F0F0
:10234C00276A274681502718FD0B2718816E69C014
:10235C0003F06AC004F06BC005F06CC006F02AEC08
:10236C001AF00350756E7550046E056A066A076A9A
:10237C00010E50EC19F004C017F005C018F006C09F
:10238C0019F007C01AF069C013F06AC014F06BC0E2
:10239C0015F06CC016F068EC1EF013C01BF014C0E6
:1023AC001CF015C01DF016C01EF0000E1F6E000EA6
:1023BC00206E000E216E3F0E226EFDEC1BF0D8A09D
:1023CC00EAEF11F0ECEF11F0EFEF11F08190F0EF7C
:1023DC0011F0818075B0F5EF11F0F8EF11F0010EEE
:1023EC00F9EF11F0000E676E6750D8B400EF12F0E1
:1023FC0004EF12F0276A272A05EF12F0276A273A12
:10240C00274680502718DF0B2718806E75C027F0E1
:10241C00D890273227B015EF12F018EF12F0010EFA
:10242C0019EF12F0000E676E6750D8B420EF12F05F
:10243C0024EF12F0276A272A25EF12F0276A273A91
:10244C0080502718EF0B2718806E75C027F0D89096
:10245C002732D890273227B036EF12F039EF12F02E
:10246C00010E3AEF12F0000E676E6750D8B441EFD0
:10247C0012F045EF12F0276A272A46EF12F0276A6E
:10248C0027462746274680502718F70B2718806EBB
:10249C0075C027F0D8902732D8902732D8902732A1
:1024AC0027B05BEF12F05EEF12F0010E5FEF12F04F
:1024BC00000E676E6750D8B466EF12F06AEF12F038
:1024CC00276A272A6BEF12F0276A27462746805087
:1024DC002718FB0B2718806E75C027F0273A0F0EB4
:1024EC00271627B07CEF12F07FEF12F0010E80EF71
:1024FC0012F0000E676E6750D8B487EF12F08BEFB6
:10250C0012F0276A272A8CEF12F0276A2746805090
:10251C002718FD0B2718806E000E146E580E136EC4
:10252C005FC003F060C004F061C005F062C006F04B
:10253C002AEC1AF003C00DF004C00EF0010E106E60
:10254C00110E0F6E3AEC1FF00DC015F00EC016F008
:10255C00E8EC1DF0020E286E450E276EAA0EE82E32
:10256C00FED7272EFCD7282EFAD7000E146E5A0E43
:10257C00136E5BC003F05CC004F05DC005F05EC080
:10258C0006F02AEC1AF003C00DF004C00EF0010E98
:10259C00106E110E0F6E3AEC1FF00DC015F00EC040
:1025AC0016F0E8EC1DF0020E286E450E276EAA0EF2
:1025BC00E82EFED7272EFCD7282EFAD7000E146E45
:1025CC005C0E136E57C003F058C004F059C005F0F0
:1025DC005AC006F02AEC1AF003C00DF004C00EF03D
:1025EC00010E106E110E0F6E3AEC1FF00DC015F0AF
:1025FC000EC016F0E8EC1DF0020E286E450E276E8C
:10260C00AA0EE82EFED7272EFCD7282EFAD71200BA
:10261C000650800B0F6E06500624116E05AE19EF96
:10262C0013F01BEF13F01CEF13F011801150D8B402
:10263C0022EF13F024EF13F039EF13F01128D8A484
:10264C002AEF13F02CEF13F034EF13F0000E036E9F
:10265C00000E046E000E056E000E066E058E000E4A
:10266C00066E41EF13F0000E036E000E046E000EAA
:10267C00056E000E066E0A50800B106E0F5010186F
:10268C00D8B44BEF13F04DEF13F04EEF13F00F8C5B
:10269C000A500A24106E09AE56EF13F058EF13F0DF
:1026AC0059EF13F010801050D8B45FEF13F061EFB6
:1026BC0013F076EF13F01028D8A467EF13F069EF3E
:1026CC0013F071EF13F0000E076E000E086E000E83
:1026DC00096E000E0A6E098E000E0A6E7EEF13F064
:1026EC00000E076E000E086E000E096E000E0A6ECC
:1026FC001150105CD8B085EF13F087EF13F0AEEFEC
:10270C0013F00FAC8CEF13F08EEF13F090EF13F07F
:10271C00800E0F1A11C012F010C011F012C010F080
:10272C0003C012F007C003F012C007F004C012F08F
:10273C0008C004F012C008F005C012F009C005F082
:10274C0012C009F006C012F00AC006F012C00AF05E
:10275C00000E126E115010C00BF00C6A0B5E000EC6
:10276C000C5A0CBEC3EF13F00C5009E11A0E0B5CA3
:10277C00D8A0C3EF13F0C5EF13F0FCEF13F0035028
:10278C00041005100610D8A4CEEF13F0D1EF13F0FF
:10279C00010ED2EF13F0000E126E000E036E000E3F
:1027AC00046E000E056E000E066E10C011F005EFE3
:1027BC0014F012A0E4EF13F0E6EF13F0ECEF13F0CB
:1027CC00D89012300109126EEEEF13F0D89012323D
:1027DC0003A0F3EF13F0F5EF13F0F6EF13F0128EF6
:1027EC0006340632053204320332112A1050115CC1
:1027FC00D8A003EF14F005EF14F0DFEF13F00FBCCB
:10280C000AEF14F00CEF14F04CEF14F01150D8A4A4
:10281C0012EF14F014EF14F01EEF14F0000E036E10
:10282C00000E046E000E056E000E066E6DEF15F0B8
:10283C000750032608500422095005220A5006228C
:10284C0006A02BEF14F02DEF14F0D9EF14F012A01A
:10285C0032EF14F034EF14F03AEF14F0D890123049
:10286C000109126E3CEF14F0D890123203A041EF24
:10287C0014F043EF14F044EF14F0128E06340632C9
:10288C00053204320332112AD9EF14F00750035CDD
:10289C0008500458095005580650800A0B6E0A500F
:1028AC00800A0B58D8B05DEF14F05FEF14F08AEF8C
:1028BC0014F00350075C0B6E045008580C6E055056
:1028CC0009580D6E06500A580E6EFF0E0B24036E3F
:1028DC00FF0E0C20046EFF0E0D20056EFF0E0E2059
:1028EC00066E800E0F1A126C1250D8A480EF14F0E2
:1028FC0082EF14F092EF14F0010E0326000E042266
:10290C000522062292EF14F00750035E0850045A79
:10291C000950055A0A50065A0350041005100610A7
:10292C00D8A49BEF14F09DEF14F0D2EF14F01250DA
:10293C00D8A4A3EF14F0A5EF14F0D2EF14F0000E0E
:10294C00036E000E046E000E056E000E066E6DEF2B
:10295C0015F0D890033604360536063612AEB9EFAC
:10296C0014F0BBEF14F0BCEF14F0038012A0C1EF15
:10297C0014F0C3EF14F0C7EF14F0D8801236C9EF7F
:10298C0014F0D89012361150D8B4CFEF14F0D1EF18
:10299C0014F0D2EF14F0110605AED7EF14F0D9EF06
:1029AC0014F0AFEF14F0000E106E12AEE0EF14F056
:1029BC00E2EF14F0FAEF14F012C00BF07F0E0B16CE
:1029CC00D8B4EBEF14F0EDEF14F0F1EF14F0010EBE
:1029DC00106EFAEF14F003A0F6EF14F0F8EF14F009
:1029EC00FAEF14F0EDEF14F01050D8B400EF15F02E
:1029FC0002EF15F02DEF15F0010E0326000E042248
:102A0C000522062206A00DEF15F00FEF15F02DEFA5
:102A1C0015F003C00BF004C00CF005C00DF006C09F
:102A2C000EF00E340E320D320C320B320BC003F0A2
:102A3C000CC004F00DC005F00EC006F01128D8B47F
:102A4C002AEF15F02CEF15F02DEF15F0112A1128A7
:102A5C00D8B433EF15F035EF15F03DEF15F01150FC
:102A6C00D8A43BEF15F03DEF15F04FEF15F0000E2D
:102A7C00036E000E046E000E056E000E066E1150F5
:102A8C00D8A44BEF15F04DEF15F04FEF15F0000EED
:102A9C000F6E11A054EF15F056EF15F059EF15F01D
:102AAC00058E5AEF15F0059ED8901130066E0FAEBC
:102ABC0062EF15F064EF15F065EF15F0068E03C0AC
:102ACC0003F004C004F005C005F006C006F01200C7
:102ADC000650800B0F6E06500624156E05AE79EF6E
:102AEC0015F07BEF15F07CEF15F015801550D8B470
:102AFC0082EF15F084EF15F097EF15F01528D8A498
:102B0C008AEF15F08CEF15F094EF15F0000E036EB4
:102B1C00000E046E000E056E000E066E058E9FEF05
:102B2C0015F0000E036E000E046E000E056E000E06
:102B3C00066E0A50800B0F1A0A500A24146E09AE46
:102B4C00AAEF15F0ACEF15F0ADEF15F014801450A2
:102B5C00D8B4B3EF15F0B5EF15F0C8EF15F0142895
:102B6C00D8A4BBEF15F0BDEF15F0C5EF15F0000EB6
:102B7C00076E000E086E000E096E000E0A6E098EAE
:102B8C00D0EF15F0000E076E000E086E000E096EE9
:102B9C00000E0A6E1450D8B4D6EF15F0D8EF15F01D
:102BAC00E0EF15F01550D8A4DEEF15F0E0EF15F0BE
:102BBC00EAEF15F0000E036E000E046E000E056EAB
:102BCC00000E066E82EF17F009500302F3CF1AF0D5
:102BDC00F4CF1BF01A50106E116A126A136A1B5054
:102BEC00166E176A186A196A08500402F3CF1AF0A5
:102BFC00F4CF1BF01A501026000E112212221322B1
:102C0C001B501626000E17221822192207500502F7
:102C1C00F3CF1AF0F4CF1BF01A501026000E11222D
:102C2C00122213221B501626000E172218221922CC
:102C3C0012C013F011C012F010C011F0106A07503E
:102C4C000402F3CF1AF0F4CF1BF01A5010261B50CD
:102C5C001122000E1222000E132208500302F3CF91
:102C6C001AF0F4CF1BF01A5010261B501122000E34
:102C7C001222000E132212C013F011C012F010C059
:102C8C0011F0106A07500302F3CF1AF0F4CF1BF0C7
:102C9C001A5010261B501122000E1222000E132265
:102CAC0009500402F3CF1AF0F4CF1BF01A50162679
:102CBC001B501722000E1822000E19220850050274
:102CCC00F3CF1AF0F4CF1BF01A5016261B50172214
:102CDC00000E1822000E192209500502F3CF1AF02B
:102CEC00F4CF1BF01A500B6E1B500C6E0D6A0E6A53
:102CFC000DC00EF00CC00DF00BC00CF00B6A0B509D
:102D0C0016260C5017220D5018220E50192210C0E6
:102D1C000BF011C00CF012C00DF013C00EF0190E18
:102D2C009DEF16F0D8900E320D320C320B32E82E8D
:102D3C0098EF16F00B5016260C5017220D50182237
:102D4C000E50192212C013F011C012F010C011F065
:102D5C00106A145015C00BF00C6A0B26000E0C22D6
:102D6C00820E0B241A6EFF0E0C201B6ED3EF16F086
:102D7C00D890163617361836193613AEC8EF16F02B
:102D8C00CAEF16F0CBEF16F01680D890103611362D
:102D9C00123613361A06D8A01B0618AED8EF16F04A
:102DAC00DAEF16F0BEEF16F0000E146E13AEE1EF74
:102DBC0016F0E3EF16F007EF17F0FF0E10140B6E82
:102DCC00FF0E11140C6EFF0E12140D6E7F0E1314E9
:102DDC000E6E0B500C100D100E10D8B4F8EF16F040
:102DEC00FAEF16F0FEEF16F0010E146E07EF17F067
:102DFC0016A003EF17F005EF17F007EF17F0FAEF37
:102E0C0016F01450D8B40DEF17F00FEF17F033EF96
:102E1C0017F0010E1626000E17221822192219A0DF
:102E2C001AEF17F01CEF17F033EF17F016C00BF07A
:102E3C0017C00CF018C00DF019C00EF00E340E3285
:102E4C000D320C320B320BC016F00CC017F00DC04B
:102E5C0018F00EC019F01A4A1B2A1BBE3EEF17F0D1
:102E6C001B5008E11A28D8A03EEF17F040EF17F0DE
:102E7C004AEF17F0000E166E000E176E800E186ECD
:102E8C007F0E196E78EF17F01BBE57EF17F01B5023
:102E9C0006E11A04D8B055EF17F057EF17F063EFAF
:102EAC0017F0000E166E000E176E000E186E000E48
:102EBC00196E000E0F6E78EF17F01AC015F0FF0E9A
:102ECC001616FF0E17167F0E1816000E191615A0E3
:102EDC0072EF17F074EF17F075EF17F0188ED8909B
:102EEC001530196E0F50191216C003F017C004F0EC
:102EFC0018C005F019C006F012000650800B136EB6
:102F0C00065006241A6E05AE8EEF17F090EF17F0F0
:102F1C0091EF17F01A801A50D8B497EF17F099EF79
:102F2C0017F0AEEF17F01A28D8A49FEF17F0A1EF07
:102F3C0017F0A9EF17F0000E036E000E046E000ED2
:102F4C00056E000E066E058E000E066EB6EF17F0BF
:102F5C00000E036E000E046E000E056E000E066E63
:102F6C000A50800B131A0A500A241B6E09AEC1EFCB
:102F7C0017F0C3EF17F0C4EF17F01B801B50D8B439
:102F8C00CAEF17F0CCEF17F0E1EF17F01B28D8A41D
:102F9C00D2EF17F0D4EF17F0DCEF17F0000E076E3E
:102FAC00000E086E000E096E000E0A6E098E000EE1
:102FBC000A6EE9EF17F0000E076E000E086E000E99
:102FCC00096E000E0A6E0750081009100A10D8A4DA
:102FDC00F2EF17F0F4EF17F00CEF18F0000E036E91
:102FEC00000E046E000E056E000E066E800E0512AD
:102FFC007F0E06121350061203C003F004C004F037
:10300C0005C005F006C006F04FEF19F01A50D8A411
:10301C0012EF18F014EF18F01EEF18F0000E036EFC
:10302C00000E046E000E056E000E066E4FEF19F0CA
:10303C001B501AC00BF00C6A0B5E000E0C5A7F0E64
:10304C000B24146E000E0C20156E03C00FF004C080
:10305C0010F005C011F006C012F0000E036E000E49
:10306C00046E000E056E000E066E000E166E000E3F
:10307C00176E000E186E000E196E000E1B6E7FEF91
:10308C0018F01B50D8B44DEF18F04FEF18F066EF56
:10309C0018F0D8900F36103611361236D8900336F9
:1030AC0004360536063619AE5EEF18F060EF18F0F0
:1030BC0061EF18F00380D89016361736183619368B
:1030CC0007500F5C08501058095011580A501258EC
:1030DC00D8A073EF18F075EF18F07EEF18F0198C7C
:1030EC0007500F5E0850105A0950115A0A50125AC4
:1030FC001B2A190E1B6485EF18F087EF18F047EFA9
:10310C0018F00F50101011101210D8B490EF18F0D6
:10311C0092EF18F0AAEF18F01680AAEF18F0D890DA
:10312C00033604360536063619AE9FEF18F0A1EFBC
:10313C0018F0A2EF18F00380D89016361736183610
:10314C0019361406D8A0150605AEAFEF18F0B1EF7E
:10315C0018F095EF18F0000E1B6E19AEB8EF18F0C2
:10316C00BAEF18F0DEEF18F0FF0E16140B6EFF0E10
:10317C0017140C6EFF0E18140D6E7F0E19140E6EB4
:10318C000B500C100D100E10D8B4CFEF18F0D1EF6F
:10319C0018F0D5EF18F0010E1B6EDEEF18F003A03F
:1031AC00DAEF18F0DCEF18F0DEEF18F0D1EF18F0D2
:1031BC001B50D8B4E4EF18F0E6EF18F00AEF19F052
:1031CC00010E0326000E04220522062206A0F1EFB2
:1031DC0018F0F3EF18F00AEF19F003C00BF004C06D
:1031EC000CF005C00DF006C00EF00E340E320D3290
:1031FC000C320B320BC003F00CC004F00DC005F008
:10320C000EC006F0144A152A15BE15EF19F015500C
:10321C0008E11428D8A015EF19F017EF19F022EFD8
:10322C0019F0000E156E1468000E036E000E046E7D
:10323C00000E056E000E066E15BE2FEF19F0155020
:10324C0006E11404D8B02DEF19F02FEF19F03DEF73
:10325C0019F0000E156E000E146E000E036E000EAB
:10326C00046E000E056E000E066E000E136E14C07A
:10327C001AF01AA044EF19F046EF19F049EF19F0C3
:10328C00058E4AEF19F0059ED8901A30066E00EFA5
:10329C0018F012000C6E0C50D8B457EF19F059EF0F
:1032AC0019F07BEF19F007BE60EF19F05EEF19F023
:1032BC007BEF19F004C008F005C009F006C00AF055
:1032CC0007C00BF0081E091E0A1E0B1E082A000E52
:1032DC0009220A220B2208C00EF009C00FF00AC006
:1032EC0010F00BC011F083EF19F004C00EF005C004
:1032FC000FF006C010F007C011F0045005100610B6
:10330C000710D8A48CEF19F08EEF19F098EF19F084
:10331C00000E046E000E056E000E066E000E076E9B
:10332C0029EF1AF0960E0D6EA2EF19F00D2AD89017
:10333C00113210320F320E32000E0E14086E000EC7
:10334C000F14096E000E10140A6EFE0E11140B6E83
:10335C00085009100A100B10D8A4B7EF19F0B9EFE8
:10336C0019F09CEF19F0C7EF19F00D2A010E0E267B
:10337C00000E0F2210221122D890113210320F326F
:10338C000E32000E0E14086E000E0F14096E000E95
:10339C0010140A6EFF0E11140B6E085009100A104F
:1033AC000B10D8A4DCEF19F0DEEF19F0BBEF19F01D
:1033BC00E6EF19F00D06D8900E360F361036113692
:1033CC0010BEEBEF19F0EDEF19F0F5EF19F0020E5E
:1033DC000D60F3EF19F0F5EF19F0E0EF19F00DB007
:1033EC00FAEF19F0FCEF19F0FDEF19F0109ED890E0
:1033FC000D320DC008F0096A0A6A0B6A08C00BF09E
:10340C000A6A096A086A08500E1209500F120A500B
:10341C0010120B5011120C50D8B417EF1AF019EF00
:10342C001AF021EF1AF007BE20EF1AF01EEF1AF077
:10343C0021EF1AF0118E0EC004F00FC005F010C071
:10344C0006F011C007F01200053406340C6E0C5057
:10345C00D8A433EF1AF035EF1AF03FEF1AF0000E44
:10346C00036E000E046E000E056E000E066EACEFC1
:10347C001AF003C007F004C008F005C009F006C03C
:10348C000AF0200E4FEF1AF0D8900A3209320832A7
:10349C000732E82E4AEF1AF007500B6E058EFF0E1E
:1034AC000316FF0E0416FF0E0516000E0616960EDA
:1034BC000C5E0CBE66EF1AF064EF1AF07CEF1AF09B
:1034CC000C50800A970FD8B06EEF1AF070EF1AF00C
:1034DC0072EF1AF035EF1AF0D8900632053204323A
:1034EC0003320C3E72EF1AF094EF1AF01F0E0C64BC
:1034FC0082EF1AF084EF1AF08CEF1AF035EF1AF015
:10350C00D89003360436053606360C060C50D8A473
:10351C0092EF1AF094EF1AF086EF1AF00B50D8B421
:10352C009AEF1AF09CEF1AF0A4EF1AF0061E051E83
:10353C00041E036C000E04220522062203C003F0B5
:10354C0004C004F005C005F006C006F01200000E21
:10355C0003140B6E000E04140C6E800E05140D6E0D
:10356C007F0E06140E6E0B500C100D100E10D8A4FE
:10357C00C2EF1AF0C4EF1AF0CCEF1AF0000E036E83
:10358C00000E046E000E056E000E066E000E071483
:10359C000B6E000E08140C6E800E09140D6E7F0E4F
:1035AC000A140E6E0B500C100D100E10D8A4E1EF77
:1035BC001AF0E3EF1AF0EBEF1AF0000E076E000EA4
:1035CC00086E000E096E000E0A6E06AEF0EF1AF0D1
:1035DC00F2EF1AF0FBEF1AF0036C041ED8B0042AB9
:1035EC00051ED8B0052A800E06560AAE00EF1BF059
:1035FC0002EF1BF00BEF1BF0076C081ED8B0082A6B
:10360C00091ED8B0092A800E0A56000E031A000EA5
:10361C00041A000E051A800E061A000E071A000E68
:10362C00081A000E091A800E0A1A0750035C08507B
:10363C000458095005580A500658D8B028EF1BF00A
:10364C002AEF1BF02DEF1BF0D8902EEF1BF0D8803B
:10365C0012000E500F10D8A436EF1BF038EF1BF0F1
:10366C004BEF1BF063C00EF064C00FF00E500F1048
:10367C00D8A443EF1BF045EF1BF04BEF1BF0000EF3
:10368C000E6E000E0F6E9DEF1BF00EC007F00FC0FC
:10369C0008F010C009F011C00AF053EC1DF00750EF
:1036AC000E2608500F220EC0D9FF0FC0DAFFDF50D4
:1036BC00D8A463EF1BF065EF1BF06FEF1BF0000E4F
:1036CC00636E000E646E63C00EF064C00FF09DEF6D
:1036DC001BF00EC007F00FC008F010C009F011C0AD
:1036EC000AF086EC1DF007500E24636E08500F2074
:1036FC00646E63C0D9FF64C0DAFFDF50D8B489EFC1
:10370C001BF08BEF1BF095EF1BF063C0D9FF64C06F
:10371C00DAFF000EDF6E634A642A99EF1BF0000E8D
:10372C00636E000E646E0EC00EF00FC00FF0120030
:10373C000600D9CF01F0DACF02F0F29E9EAAA9EFD3
:10374C001BF0ABEF1BF0F5EF1BF0240EAE18D8A45A
:10375C00B2EF1BF0B4EF1BF0B8EF1BF0000E666E6F
:10376C00000E656E980E6524D96E000E6620DA6E1A
:10377C00AECFDFFF654A662A66BED0EF1BF06650FF
:10378C0007E1250E655CD8B0CEEF1BF0D0EF1BF037
:10379C00E5EF1BF0230EAE18D8A4D7EF1BF0D9EF32
:1037AC001BF0F5EF1BF0E5EF1BF0980E6524D96EBE
:1037BC00000E6620DA6E000EDF6E654A662A240E55
:1037CC0065186610D8A4EDEF1BF0EFEF1BF0DBEFE4
:1037DC001BF0000E666E000E656E010E686E9E9AF2
:1037EC00F28E02C0DAFF01C0D9FF76921100000EF2
:1037FC001B14236E000E1C14246E800E1D14256EDB
:10380C007F0E1E14266E2350241025102610D8A4CB
:10381C0012EF1CF014EF1CF01CEF1CF0000E1B6ED2
:10382C00000E1C6E000E1D6E000E1E6E000E1F1480
:10383C00236E000E2014246E800E2114256E7F0E34
:10384C002214266E2350241025102610D8A431EFF4
:10385C001CF033EF1CF03BEF1CF0000E1F6E000E43
:10386C00206E000E216E000E226E1F501B180FE1F1
:10387C0020501C180CE121501D1809E122501E1873
:10388C00D8B44BEF1CF04DEF1CF050EF1CF0D8905F
:10389C0051EF1CF0D8801200000E176E000E186E3F
:1038AC00000E196E000E1A6E13501410151016100F
:1038BC00D8B463EF1CF065EF1CF09BEF1CF0010E0D
:1038CC001B6E6FEF1CF0D890133614361536163667
:1038DC001B2A16AE74EF1CF076EF1CF069EF1CF08F
:1038EC00D8901736183619361A3613500F5C1450F8
:1038FC0010581550115816501258D8A088EF1CF0BB
:10390C008AEF1CF093EF1CF013500F5E1450105AFA
:10391C001550115A1650125A1780D890163215326B
:10392C00143213321B2E76EF1CF017C00FF018C098
:10393C0010F019C011F01AC012F01200948694887D
:10394C0094948284280EC66E000EC56E000E0F6E07
:10395C002D0E106E310E116E010E126E1CC020F069
:10396C001DC021F01EC022F01FC023F0020ED89003
:10397C002036213622362336E82EBDEF1CF020C02F
:10398C0003F021C004F022C005F023C006F0640E41
:10399C00076E000E086E000E096E000E0A6E1EEC0D
:1039AC001DF003C013F004C014F005C015F006C0E0
:1039BC0016F052EC1CF00F04C86E000EC76E12000D
:1039CC00010E096ED00E056EFF0E066E03C007F0D9
:1039DC0004C008F00550072606500822085009E1DB
:1039EC000A0E075CD8A0FDEF1CF0FFEF1CF01AEFDD
:1039FC001DF09F0E056EFF0E066E200E0310076E57
:103A0C00000E0410086E05500726065008220850B8
:103A1C0009E1060E075CD8A016EF1DF018EF1DF09B
:103A2C001AEF1DF0000E096E09C003F0046A1200B3
:103A3C00000E0B6E000E0C6E000E0D6E000E0E6E58
:103A4C0003A02BEF1DF02DEF1DF035EF1DF00750EF
:103A5C000B2608500C2209500D220A500E22D89029
:103A6C000736083609360A36D89006320532043243
:103A7C0003320350041005100610D8A448EF1DF0B3
:103A8C004AEF1DF026EF1DF00BC003F00CC004F044
:103A9C000DC005F00EC006F01200000E0D6E000EEB
:103AAC000C6E5DEF1DF0074A082A0C4A0D2A07C060
:103ABC00D9FF08C0DAFFDF50D8B467EF1DF069EF0B
:103ACC001DF081EF1DF009C003F00AC004F007C01F
:103ADC00D9FF08C0DAFFDF500B6E0B50056E066A7B
:103AEC0016EC1EF003500410D8A47FEF1DF081EFEC
:103AFC001DF059EF1DF00CC007F00DC008F01200BE
:103B0C00000E0D6E000E0C6E90EF1DF0074A082A89
:103B1C000C4A0D2A07C0D9FF08C0DAFFDF50D8B411
:103B2C009AEF1DF09CEF1DF0B4EF1DF009C003F0EF
:103B3C000AC004F007C0D9FF08C0DAFFDF500B6ED3
:103B4C000B50056E066A16EC1EF003500410D8B428
:103B5C00B2EF1DF0B4EF1DF08CEF1DF00CC007F0B0
:103B6C000DC008F012009F0E0B6EFF0E0C6E09C0FC
:103B7C000DF00AC00EF00B500D260C500E220E50FC
:103B8C000AE11A0E0D5CD8A0CEEF1DF0D1EF1DF09E
:103B9C00010ED2EF1DF0000E0F6E106A0F501010B8
:103BAC00D8B4DBEF1DF0DDEF1DF0E3EF1DF05F0E81
:103BBC000914096E0A6AE7EF1DF009C009F00AC082
:103BCC000AF01200A2EC1FF0000E056EC00E046E7F
:103BDC0099EC1FF013C004F014C005F099EC1FF021
:103BEC0015C017F016C018F018C017F0186A0F0E91
:103BFC001714046E056A99EC1FF015C004F016C07A
:103C0C0005F099EC1FF09EEC1FF08294410E176E9C
:103C1C00EE0EE82EFED7172EFCD700D082841200B1
:103C2C0003C0F6FF04C0F7FF0800F5500518D8A430
:103C3C0022EF1EF024EF1EF02AEF1EF003C003F05B
:103C4C0004C004F03EEF1EF003C0F6FF04C0F7FF03
:103C5C00034A042A0800F5500009D8A438EF1EF0D6
:103C6C003AEF1EF016EF1EF0000E036E000E046EFF
:103C7C001200010E096E200E03180410D8B449EF7F
:103C8C001EF04BEF1EF064EF1EF0F70E056EFF0EEC
:103C9C00066E03C007F004C008F005500726065056
:103CAC000822085009E1050E075CD8A060EF1EF051
:103CBC0062EF1EF064EF1EF0000E096E09C003F0F7
:103CCC00046A1200000E171A000E181A000E191AA8
:103CDC00800E1A1A13C003F014C004F015C005F0BE
:103CEC0016C006F017C007F018C008F019C009F08C
:103CFC001AC00AF00EEC13F003C013F004C014F059
:103D0C0005C015F006C016F012009F0E056EFF0ED2
:103D1C00066E03C007F004C008F0055007260650D5
:103D2C00082208500AE11A0E075CD8A0A0EF1EF07A
:103D3C00A3EF1EF0010EA4EF1EF0000E036E046A3A
:103D4C001200D00E056EFF0E066E03C007F004C005
:103D5C0008F0055007260650082208500AE10A0E02
:103D6C00075CD8A0BCEF1EF0BFEF1EF0010EC0EF39
:103D7C001EF0000E036E046A1200035004100510AE
:103D8C000610D8B4CCEF1EF0CEEF1EF0D6EF1EF01E
:103D9C00000E031A000E041A000E051A800E061AE5
:103DAC0003C003F004C004F005C005F006C006F023
:103DBC001200EBEF1EF004C0F6FF05C0F7FF080081
:103DCC00F5508EEC1FF0044A052A04C0F6FF05C01E
:103DDC00F7FF0800F5500009D8A4F7EF1EF0F9EF33
:103DEC001EF0E1EF1EF012000E6E0EC0A9FF0DC00A
:103DFC00A8FFA69EA69CA684F29E550EA76EAA0EA0
:103E0C00A76EA682A6B20DEF1FF00FEF1FF008EF02
:103E1C001FF0A694F28E120000EE80F03B0EEE6ABC
:103E2C00E806FDE100EE57F0120EEE6AE806FDE141
:103E3C0076907692000EF86E060EF76E0001C1EFCA
:103E4C000BF04DC027F04EC028F0000E296E000E6E
:103E5C002A6E16EC03F027C04DF028C04EF029C096
:103E6C004FF02AC050F012000D500F02F3CF11F09A
:103E7C00F4CF12F00D501002F35012260E500F0218
:103E8C00F350122611C00DF012C00EF01200C5CF67
:103E9C0003F01F0E0316D8A456EF1FF058EF1FF0B7
:103EAC004DEF1FF0C7B45DEF1FF05FEF1FF04DEF4C
:103EBC001FF01200FF0E076EFF0E086EFF0E096E4C
:103ECC007F0E0A6E07C003F008C004F009C005F0AD
:103EDC000AC006F01200036E03C0A9FFA69EA69CA2
:103EEC00A680A6B07CEF1FF07EEF1FF077EF1FF0DF
:103EFC00A8501200948C948E810EAF6EAC84AC984A
:103F0C00AB8EAC8AAB88AC9CAB9C9F8A9D8A120012
:103F1C00036E9EA894EF1FF096EF1FF08FEF1FF02B
:103F2C0003C0ADFF12004DEC1FF004C0C9FF12001E
:103F3C004DEC1FF0C58412004DEC1FF0C580120033
:020000040020DA
:08000000FFFFFFFFFFFFFFFF00
:020000040030CA
:0E000000FF021F1EFF0180FF0FC00FE00F4028
:00000001FF
